:100000000C942A000C9447000C94E2000C944700D6
:100010000C9447000C9447000C9447000C94470044
:100020000C9447000C9447000C9447000C94470034
:100030000C9447000C9447000C9447000C94470024
:100040000C945B000C9447000C9447000C94470000
:100050000C94470011241FBECFE5D8E0DEBFCDBF12
:1000600010E0A0E6B0E0EAE3F4E002C005900D92F3
:10007000A837B107D9F710E0A8E7B0E001C01D929A
:10008000A038B107E1F70E94B2010C941B020C9456
:1000900000008FEA86B980EA80BF85E08EBD80E1EE
:1000A0008FBD1DBC1CBC8DE89BE599BD88BD81E062
:1000B00087B93E9A08951F920F920FB60F9211249E
:1000C0002F933F934F935F936F937F938F939F9360
:1000D000AF93BF93EF93FF93E0917C00F0917D008D
:1000E000099588B7886088BF1DBC1CBCFF91EF9143
:1000F000BF91AF919F918F917F916F915F914F9140
:100100003F912F910F900FBE0F901F901895982F31
:10011000613041F1613020F0623009F052C043C0DB
:100120008BB780648BBF9230A1F0933020F4913074
:1001300009F047C014C0933031F0943009F041C049
:1001400085B78C7F2EC085B7816085BF85B78D7FD1
:1001500028C085B78E7F85BF85B7826022C085B7EE
:1001600083601FC08BB780688BBF923091F0933053
:1001700018F4913031F513C0933029F0943009F51B
:1001800085B7837F0EC085B7846085BF85B7877FBD
:1001900008C085B78B7F85BF85B7886002C085B7EB
:1001A0008C6085BF08958BB780628BBF913031F032
:1001B000923039F484B78F7B84BF089584B780640C
:1001C00084BF08951F920F920FB60F9211242F93A0
:1001D0003F934F935F936F937F938F939F93AF93CF
:1001E000BF93EF93FF93E0917E00F0917F0009951C
:1001F000FF91EF91BF91AF919F918F917F916F91FF
:100200005F914F913F912F910F900FBE0F901F90D4
:10021000189528E12AB926E820BD9C0140E050E06D
:1002200084E0220F331F441F551F8A95D1F760E0E9
:1002300072E18AE790E00E94F9012150304029B92B
:1002400030BD08955D9BFECF8CB908955F9BFECFB6
:100250008CB108958D9A959A0895959A08959598D8
:10026000089582B390E2892782BB089580B3829576
:10027000869587708095817008951F93CF93DF9343
:10028000EC0110E003C00E9422011F5FFE01E10F9C
:10029000F11D80818823B9F7DF91CF911F910895D7
:1002A00080E895E20E940901089590937F00809371
:1002B0007E00089581E061E00E948700089584B186
:1002C00095B1880F991F880F991F6AE070E00E940E
:1002D000E501CB0108959C01FB016AE070E00E94FA
:1002E000E501805D8183C9016AE070E00E94E5015B
:1002F000CB016AE070E00E94E501805D808312829C
:10030000089590937D0080937C0008950E94490099
:10031000089580E690E00E943D010E943601882306
:1003200019F089E690E002C08DE690E00E943D0160
:1003300008950E9486010E945A010E942A010E948B
:100340005001089581E0809379000E945F019093AD
:100350007B0080937A00089581E0809378000E946A
:10036000310108950F931F93DF93CF9300D000D0F6
:10037000CDB7DEB70E9499018CEA91E00E94550149
:1003800082EA91E00E94810178948E010F5F1F4FF5
:1003900080917800813021F40E94890110927800C8
:1003A000809179008130A1F780917A0090917B0053
:1003B000B8010E946B01C8010E943D0182E790E0F4
:1003C0000E943D0110927900E3CFAA1BBB1B51E1B3
:1003D00007C0AA1FBB1FA617B70710F0A61BB70BB5
:1003E000881F991F5A95A9F780959095BC01CD015A
:1003F0000895A1E21A2EAA1BBB1BFD010DC0AA1F66
:10040000BB1FEE1FFF1FA217B307E407F50720F07D
:10041000A21BB30BE40BF50B661F771F881F991FF8
:100420001A9469F760957095809590959B01AC0141
:0A043000BD01CF010895F894FFCF3D
:10043A00707265737365640A004F4E0A004F464630
:08044A000A002063200A0000F3
:00000001FF
